S01B0000434741446973706C61795F6669726D776172652E73726563AC
S113000012C021C020C01FC01EC01DC01CC01BC008
S11300101AC019C018C017C016C015C014C013C028
S113002012C011C010C011241FBECFE5D4E0DEBF42
S1130030CDBF20E0A0E6B0E001C01D92A63AB20711
S1130040E1F7F5D0CDC4DCCF18BA8FEF87BB0895A4
S113005018BA17BA089580916200823049F0F8DF27
S113006085B38D7F85BB85E085BB82E0809362008C
S1130070089580916200882341F0E6DF85B38B7F89
S113008085BB83E085BB1092620008958091620075
S1130090882359F0D9DF85B38B7F85BB85B38E7FE9
S11300A085BB82E085BB109262000895D4DF85B3DE
S11300B0877F85BB86B395B3986095BB0895CF932E
S11300C0C82FD7DFC8BB85B3877F85BB85B388605E
S11300D085BBECDFCF910895CF93C82FD7DFC8BB82
S11300E085B3877F85BB85B3886085BBDFDFCF9110
S11300F00895E5DF0895CF93DF93D82F862FECDFA3
S1130100C82F8D2FE9DFC82B82E4D9DF8C2BDF9138
S1130110CF91089515BA8FE084BB9DDF2FEF81EE58
S113012094E0215080409040E1F700C0000085B386
S1130130886085BB8AE9DDDF6CE080E0DCDF089560
S1130140CF93DF93D82F862FC7DFC82F8D2FC4DF1F
S1130150C82B84E2B4DF8C2BDF91CF910895CF9329
S1130160BBDFC82F80ECABDF8C2BCF91089590912F
S1130170600020E830E0092E02C0359527950A94E6
S1130180E2F7822320916100822B809361009730F3
S113019011F4E5DF01C080E0909160009F5F9093CF
S11301A06000983021F4109261001092600008956C
S11301B01F93CF93DF936CE080E0C2DF10E00BC0AD
S11301C080E0D5DF219602C0C0E0D0E0C03481E0F9
S11301D0D807B0F31F5F1123BCF7DF91CF911F91B4
S11301E00895EF92FF920F931F93CF93DF937C01B7
S11301F0062F6CE080E0A4DF10E010C0202FA701E0
S1130200612FCE01E4D1B3DF82BB219602C0C0E0EE
S1130210D0E0C03481E0D80788F31F5F1123BCF716
S1130220DF91CF911F910F91FF90EF90089512BA33
S11302308FEF81BB6FDF0F2EF5E9CF2EF0E0DF2EBD
S1130240F02DEE24EA940FEF2CE34CE364E184E117
S113025090E06ED0C8E6D0E0998388830F2EFCE747
S1130260EF2EF0E0FF2EF02D00E020E04EE162E3FF
S113027082E390E071D09B838A830F2EF3E8EF2E04
S1130280F0E0FF2EF02D0FEF2EE130E04EE150E0D4
S113029062E384E190E039D09D838C830F2EFDE9E5
S11302A0EF2EF0E0FF2EF02D22EE3FEF4EE150E076
S11302B060E582E390E029D09F838E830F2EFCE8D3
S11302C0EF2EF0E0FF2EF02D20E030E04CE350E084
S11302D062E384E190E019D09987888723E630E0CF
S11302E04FEF68E282E390E008D09B878A8760DF63
S11302F066E088E690E075DFFACFF9011082928318
S1130300818363834483C9010895EF92FF920F931D
S1130310F70171E0708392838183638355834483FF
S1130320378326830087C7010F91FF90EF900895CC
S1130330CF92DF92EF920F93F60133E030839283F2
S113034081836383448325830683E782C6010F91F7
S1130350EF90DF90CF900895EF92FF920F93F70103
S113036034E03083928381836383448325830683CB
S1130370C7010F91FF90EF900895FA012181328116
S11303802817390729F48381861304C084810895CA
S11303908FE008958FE008954F925F926F927F925D
S11303A08F929F92AF92BF92CF92DF92EF92FF9281
S11303B00F931F93CF93DF93FA01218132816C0154
S11303C0C21AD30A76018381C62FD0E0C81BD10993
S11303D01C141D0434F084819581C816D9060CF0D0
S11303E040C0DD233CF4868197818C179D0714F46B
S11303F09923CCF51C161D0644F486819781C817F1
S1130400D9071CF41816190684F58F018681978183
S113041064807580B301BDD2072E000C880B990B44
S11304204ED14B015C01FF2014F16E147F040CF1DA
S1130430BE01DD0F880B990B42D12B013C01B601A3
S1130440DD0C880B990B3BD1A5019401C0D19B0114
S1130450AC01C301B20101D181110DC0F801808545
S11304600BC08FE009C08FE007C08FE005C08FE0AC
S113047003C08FE001C08FE0DF91CF911F910F91F6
S1130480FF90EF90DF90CF90BF90AF909F908F90B0
S11304907F906F905F904F900895FA01218132818F
S11304A0821B930B9C01838170E0681B71093323C9
S11304B034F1448150E0421753071CF177231CF1B7
S11304C0A581B0E0A617B70704F18781332354F060
S11304D0421753073CF06115710519F06A177B0741
S11304E009F48681772394F0A617B7077CF02115C9
S11304F0310519F02417350749F4868108958FE0F2
S113050008958FE008958FE008958FE00895CF92C5
S1130510DF92EF92FF920F931F93CF93DF93FA0131
S1130520418152812481022F10E0DA01A01BB10B1A
S11305308A179B07E0F1DA01A00FB11FA817B907CA
S1130540C0F170E0A381B0E09801ED01C21BD30BB0
S11305506C177D0784F12A0F3B1F261737076CF1B0
S1130560EF01481B590BA61BB70B449F6001459F25
S1130570D00CD00C1124AA9FC001AB9F900D900DFC
S11305801124C80ED91E0D2C000CEE08FF08C7015B
S1130590B60195D083D165D00617170710F08E8168
S11305A001C08FE00617170749F48D8107C08FE05B
S11305B005C08FE003C08FE001C08FE0DF91CF91D1
S11305C01F910F91FF90EF90DF90CF900895CF92FD
S11305D0DF92EF92FF920F931F93CF93DF93EC017F
S11305E0C62E8A01E22EF12CD12C2BC0EF2DF0E087
S11305F0EE0FFF1FE00FF11F40815181411551059E
S1130600F9F0FA0180818770813051F028F083304D
S113061059F0843069F010C06C2DCE01AEDE0DC0EF
S11306206C2DCE01B9DE09C06C2DCE0136DF05C0BC
S11306306C2DCE016CDF01C08FE08F3009F0D82E15
S1130640F394FE1498F28D2DDF91CF911F910F91A9
S1130650FF90EF90DF90CF9008956CD008F481E084
S1130660089594D088F09F5790F0B92F9927B751E7
S1130670A0F0D1F0660F771F881F991F1AF0BA9562
S1130680C9F712C0B13081F09BD0B1E0089598C091
S1130690672F782F8827B85F39F0B93FCCF3869558
S11306A077956795B395D9F73EF4909580957095B5
S11306B061957F4F8F4F9F4F0895E89409C097FB32
S11306C03EF490958095709561957F4F8F4F9F4F25
S11306D09923A9F0F92F96E9BB279395F695879569
S11306E077956795B795F111F8CFFAF4BB0F11F42C
S11306F060FF1BC06F5F7F4F8F4F9F4F16C08823D3
S113070011F096E911C0772321F09EE8872F762F08
S113071005C0662371F096E8862F70E060E02AF049
S11307209A95660F771F881FDAF7880F9695879535
S113073097F90895990F0008550FAA0BE0E8FEEF0A
S113074016161706E807F907C0F012161306E40791
S1130750F50798F0621B730B840B950B39F40A268A
S113076061F0232B242B252B21F408950A2609F468
S1130770A140A6958FEF811D811D089557FD9058C6
S1130780440F551F59F05F3F71F04795880F97FB51
S1130790991F61F09F3F79F087950895121613060B
S11307A01406551FF2CF4695F1DF08C0161617063A
S11307B01806991FF1CF869571056105089408956F
S11307C0E894BB2766277727CB0197F908950BD0C8
S11307D0CFC0C0D028F0C5D018F0952309F09CC034
S11307E0AFC01124EECFCADFA0F3959FD1F3950FCC
S11307F050E0551F629FF001729FBB27F00DB11DA1
S1130800639FAA27F00DB11DAA1F649F6627B00D30
S1130810A11D661F829F2227B00DA11D621F739F19
S1130820B00DA11D621F839FA00D611D221F749F27
S11308303327A00D611D231F849F600D211D822F6E
S1130840762F6A2F11249F5750408AF0E1F08823B5
S11308504AF0EE0FFF1FBB1F661F771F881F9150C2
S11308605040A9F79E3F510570F056C0AACF5F3F94
S1130870ECF3983EDCF3869577956795B795F795F5
S1130880E7959F5FC1F7FE2B880F911D969587957D
S113089097F9089511F40EF453C044C077DFD0F3F0
S11308A09923D9F3CEF39F57550B87FF4CD00024DF
S11308B0A0E640EA900180585695979528F4805C0C
S11308C0660F771F881F20F026173707480730F474
S11308D0621B730B840B202931294A2BA69517948C
S11308E00794202531254A2758F7660F771F881F5C
S11308F020F026173707480730F4620B730B840B7C
S1130900200D311D411DA09581F7B901842F915807
S1130910880F96958795089597F99F6780E870E00A
S113092060E008959F3F31F0915020F487957795CA
S11309306795B795880F911D9695879597F90895B2
S11309409FEF80EC089591505040660F771F881FE9
S1130950D2F7089500240A941616170618060906F5
S1130960089500240A941216130614060506089521
S1130970092E0394000C11F4882352F0BB0F40F4A9
S1130980BF2B11F460FF04C06F5F7F4F8F4F9F4FE9
S1130990089597FB072E16F4009406D077FD08D02F
S11309A00BD007FC05D03EF4909581959F4F089598
S11309B0709561957F4F0895AA1BBB1B51E107C039
S11309C0AA1FBB1FA617B70710F0A61BB70B881FDB
S11309D0991F5A95A9F780959095BC01CD0108956A
S10709E0F894FFCFB5
S9030000FC
